:020000040800F2
:10000000B0050020D5000008790800087508000830
:1000100000000000000000000000000000000000E0
:100020000000000000000000000000005909000866
:100030000000000000000000F50800081D0A00088C
:10004000E7000008E7000008E7000008E7000008F4
:10005000E7000008E7000008E7000008E7000008E4
:10006000E7000008E7000008E7000008E7000008D4
:10007000E7000008E7000008E7000008E7000008C4
:10008000E7000008E700000800000000E7000008A3
:10009000E7000008E7000008E7000008E7000008A4
:1000A000E7000008E7000008E7000008E700000894
:1000B000E700000800000000E70000080000000062
:1000C0000348854600F03EF80048004765100008E8
:1000D000B00500200448804704480047FEE7FEE7DB
:1000E000FEE7FEE7FEE7FEE7890A0008C100000818
:1000F00030B50B46014600202022012409E00D46C0
:10010000D5409D4205D31D469540491B2546954047
:1001100040191546521E002DF1DC30BD70B500248B
:100120002546002801DA01244042002901DA012590
:100130004942FFF7DDFFAC4200D04042002C00D026
:10014000494270BD064C0125064E05E02046E36895
:1001500007C82B4398471034B442F7D3FFF7B4FFD6
:10016000E41200080413000870B58C180578401CD0
:100170006B075B0F01D10378401C2A1106D102786E
:10018000401C03E00678401C0E70491C5B1EF9D130
:100190002B0705D40023521E0DD40B70491CFAE71F
:1001A0000378401CCB1A921C03E01D785B1C0D7079
:1001B000491C521EF9D5A142D8D3002070BD10B5FC
:1001C0000B460021846A1C43846200BF0C46144322
:1001D0002146416110BD002904D0826801231A43E1
:1001E000826003E0826802231A438260704700291C
:1001F00004D0C26801231A43C26003E0C2685208F7
:100200005200C2607047C26802239A43C260C2684B
:100210000A43C260704730B5014600200022002327
:100220008C680125ED072C438C6000BF8C68E30FC0
:10023000DB07521C0F242403A24201D0002BF5D16E
:100240008C68E40FE40701D1086C00E0002030BDA9
:1002500030B502460020002301242406214205D0A7
:10026000946801252D06AC43234600E013681C4624
:100270000C4201D0012000E0002030BD10B500226A
:10028000C268084B1A400C7964030B6823438C68DE
:100290002343CC6823430C6923434C6923431A430B
:1002A000C26010BD03D2FFFF816804221143816048
:1002B00070470000002904D0026801231A4302603D
:1002C00003E00268014B1A4002607047FEFF000025
:1002D00010B5002202680D4B1A400C6A8B6823434C
:1002E0000C6923434C6923438C692343CC69234322
:1002F0004C6A23438C6A23431A430260CB684360F1
:100300000B6883604B68C36010BD00000F80FFFF67
:100310000346062106221448018814480288002B4F
:1003200015D0012B1DD1002A06D11148814201D1DF
:10033000002070470120FCE7002906D10C488242CA
:1003400001D10120F5E70020F3E7AB20F1E7002918
:1003500001D10020EDE7002A01D10120E9E7AB201F
:10036000E7E70020E5E700000070000800740008DF
:10037000EEEE000010B504240B4800F087F90446A7
:10038000042C01D0204610BD0021074800F0C0F920
:100390000446042C01D02046F5E7044800F076F925
:1003A00004462046EFE700000070000800740008D3
:1003B000FEB50620029006260025002700200190A9
:1003C000401E009073480088029073480688029887
:1003D000002872D07149401829D0714940186DD158
:1003E000002E07D16B4800F051F90446042C1DD0B3
:1003F0002046FEBD69484042864210D1654800F063
:1004000045F90446042C01D02046F2E70021624859
:1004100000F07EF90446042C08D02046E9E7FFF7F7
:10042000A9FF0446042C01D02046E2E7AEE0002EEE
:1004300038D1002523E05748C0886900594A515AED
:10044000884201D128B200900098854215D06900F9
:10045000544A505A544900F0ABF8019001980128D1
:100460000BD069004F4A505A4F49098800F0D6F81E
:100470000746042F01D03846BBE7681C85B2112D12
:10048000D9DB0021434800F043F90446042C01D095
:100490002046AEE7404800F0F9F80446042C1ED090
:1004A0002046A6E74148864212D13B4800F0EEF8CC
:1004B0000446042C03D020469BE711E05EE00021B7
:1004C000344800F025F90446042C08D0204690E773
:1004D000FFF750FF0446042C01D0204689E755E081
:1004E000002E06D1FFF746FF0446042C45D02046D7
:1004F0007FE72E48864207D1274800F0C7F8044618
:10050000042C3AD0204674E7002523E02248C08816
:100510006900244A515A884201D128B200900098BB
:10052000854215D069001F4A505A1F4900F040F813
:100530000190019801280BD069001A4A505A1A49B3
:10054000098800F06BF80746042F01D0384650E7C1
:10055000681C85B2112DD9DB00210F4800F0D8F8B6
:100560000446042C01D0204643E70A4800F08EF8E8
:100570000446042C01D020463BE707E0FFF7FAFED3
:100580000446042C01D0204633E700BF00BF0420FE
:100590002FE7000000700008007400081211FFFF30
:1005A000EFEEFFFF0600002000000020FFFF00002C
:1005B000FEB506460F460025154802900120019021
:1005C000144C204600900020FFF7A2FE0546AB2DFC
:1005D00000D1FEBDA802104940180090681C80029E
:1005E000891E44180CE0208802900298B04206D17F
:1005F00020462038C08B38800020019004E0241F62
:100600000098801C8442EED800BF0198E1E700000A
:10061000555500000000010800700008F3B581B0D6
:10062000074604260025164C164800900120FFF7C7
:100630006FFE0546AB2D00D1FEBDA802124944183D
:10064000681C8002891E4018009013E02068401C3E
:100650000FD12046029900F05BF80646042E01D027
:100660003046E9E73946A01C00F052F8064630460D
:10067000E2E7241D00988442E8D38020DCE70000F4
:1006800000000108FF0701080070000830B50446AB
:1006900004250B20000400F06FF80546042D17D147
:1006A0000C480069022108430A4908610846446170
:1006B000006940210843074908610B20000400F04D
:1006C0005BF8054603480069022188430149086137
:1006D000284630BD0020024004200C49C968C907E3
:1006E000C90F012901D101200EE00849C968102273
:1006F000114201D0022007E00449C96804221142D6
:1007000001D0032000E004207047000000200240D8
:1007100070B504460D4604260B20000400F02CF8AA
:100720000646042E11D10A480069012108430849F0
:10073000086125800B20000400F01EF806460448DE
:1007400000694008400002490861304670BD000061
:1007500000200240054800698021084204D0044876
:10076000024948600348486070470000002002408A
:1007700023016745AB89EFCD10B503460424FFF78D
:10078000ABFF044603E0FFF7A7FF04465B1E012C06
:1007900001D1002BF7D1002B00D10524204610BD3C
:1007A000F0B50A4600210023002400BF3DE00125EA
:1007B0008D402B4615681D402C469C4234D115793E
:1007C000012D02D01579022D16D185684F00032620
:1007D000BE40B543856055794E00B54086683543C7
:1007E0008560858801268E40B54385808588967909
:1007F0008E40B6B23543858005684F000326BE4063
:10080000B543056015794E00B5400668354305606F
:10081000C5684F000326BE40B543C560D5794E007C
:10082000B540C6683543C560491C1029BFD3F0BD2B
:10083000F0B5002300244D07EE0E1546B5402B46BB
:10084000CD10AE0005462035AD594E07F70E0F26E8
:10085000BE40B543CE10B60007462037BD51CD107F
:10086000AE003D46AD591D432C46CD10AD003E4671
:100870007451F0BD00BFFEE77047000010B50028BE
:1008800019DA1A4A03071B0F083B9B089B00D25832
:100890008307DC0EFF23A3409A438B071B0E8407BC
:1008A000E40EA3401A43114B0407240F083CA4088C
:1008B000A4001A5118E00E4A03231B02D218830821
:1008C0009B00D2588307DC0EFF23A3409A438B077B
:1008D0001B0E8407E40EA3401A43054B0324240295
:1008E0001B198408A4001A5110BD00001CED00E083
:1008F00000E100E070470000002905D0054A526978
:100900000243044B5A6104E0024A52698243014B9C
:100910005A61704700100240002905D0054AD2698B
:100920000243044BDA6104E0024AD2698243014B7C
:10093000DA61704700100240002905D0054A92692B
:100940000243044B9A6104E0024A92698243014BDC
:100950009A6170470010024070470000002100209B
:100960002C4A126801231B041A432A4B1A6000BF49
:10097000284A126801235B041A401046491C0028CB
:1009800003D1052212029142F2D1224A12680123B8
:100990005B041A4201D0012000E00020012837D179
:1009A00011221D4B1A601B4A52681A4B5A601A4694
:1009B00052685A601A4652683F231B049A43154BEB
:1009C0005A601A46526811231B041A43114B5A608D
:1009D0001A46126803061A430E4B1A6000BF0D4AEE
:1009E000126801235B061A42F9D00A4A526892083B
:1009F0009200084B5A601A46526802231A43054B6C
:100A00005A6000BF034A52680C231A40082AF9D1E1
:100A100070470000001002400020024010B5154849
:100A20000088401C134908800120134908700A21DE
:100A300010480088FFF772FB002902D101200F49FE
:100A4000087064210B480088FFF768FB002902D179
:100A500001200B4908707D21C90006480088FFF776
:100A60005DFB002905D101200649087000200149DD
:100A7000088010BD64010020020000200300002057
:100A8000040000200500002010B51B48006801216B
:100A90000843194908600846406818490840164943
:100AA000486008460068164908401349086008462F
:100AB00000680121890488430F490860084640689E
:100AC0003F21090488430C4948600846C06A000970
:100AD0000001C8620846006BFF2154318843064973
:100AE00008630846406B4008400048630020886067
:100AF000FFF734FF10BD0000001002400CB8FFF8F3
:100B0000FFFFF6FE002904D0028880231A430280EA
:100B100003E00288014B1A40028070477FFF00000B
:100B2000002904D0028801231A43028003E00288CE
:100B3000014B1A4002807047FEFF000070B5002490
:100B400000220023058C1C4E35400584028C8388CE
:100B5000848B194D90352C40174DFD352C400D8858
:100B60002C43164D2A408D892D062D0C2A434D8885
:100B70002D062D0C2A43124DA84217D1114D2A40A3
:100B8000CD892D062D0C2A430F4D2A408D882D0628
:100B90002D0C2A430D4D2B400D4D2B400D8A2D055C
:100BA0002D0C2B434D8A2D052D0C2B4383808483E4
:100BB0008D68C563028470BDFFFE0000FFFD00006C
:100BC000002C0140FFF70000FFFB0000FFEF0000DA
:100BD000FFDF00000A460021818B034B19400B46C2
:100BE0001343194681837047F7FF000000220288F3
:100BF000154B984206D001239B07984202D0134B15
:100C0000984203D1124B1A404B881A43114B984219
:100C100003D0114B1A400B891A4302804B68C36200
:100C20000B880385084B984208D00C4B984205D09E
:100C30000B4B984202D00B4B984201D18B7A038622
:100C40000123838270470000002C01400004004013
:100C50008FFF000000100040FFFC0000004001403A
:100C6000004401400048014002E008C8121F08C1CA
:100C7000002AFAD170477047002001E001C1121F1D
:100C8000002AFBD1704710B500F001F810BD10B577
:100C9000FFF760FDFFF78CFB10BD00001CB50121C4
:100CA0008804FFF729FE0E2000900121684601719B
:100CB00000218171012141710021C17169460648FD
:100CC000FFF76EFD0220044920310881042002490B
:100CD0008861082088611CBD000400481F48007816
:100CE000012802D100201D4908701C4840780128C5
:100CF00002D100201949487018488078012802D193
:100D00000020164988701548C078012802D10020BB
:100D10001249C87011480079012802D100200F49FA
:100D200008710E484079012802D100200B49487112
:100D30000A488079012802D10020084988710748B3
:100D4000C079012802D100200449C8710348007A03
:100D5000012802D100200149087270479801002043
:100D60001CB501218804FFF7C7FD0720C0020090D1
:100D70000021684601718171012141710021C17119
:100D800069460748FFF70CFD07200002009001218B
:100D90006846017169460248FFF702FD1CBD00006C
:100DA0000004004810B5FF220132364B9A61520010
:100DB0009A6152009A6100202AE00246083201231B
:100DC00093409AB22F4B20331A81002116E02D4A0E
:100DD000128A0B460B3301249C40224206D000228B
:100DE0004300C318284C1B195A5405E00122430044
:100DF000C318254C1B195A544A1CD1B20329E6DBEF
:100E000002460832012393401E4A9361421CD0B22D
:100E10000328D2DB002031E000212BE042008218C1
:100E2000194BD218525C012A1BD142008218521869
:100E30005200164B9A5A521C4300C3185B185B00B1
:100E4000124CE252420082185218520023469A5A1B
:100E5000032A0DD101224300C3185B180C4CE25445
:100E600006E000224300C3185B185B00074CE25207
:100E70004A1CD1B20329D1DB421CD0B20328CBDB00
:100E800010BD0000000400487C0100208601002005
:100E90009801002070B50646B72413E0204600F004
:100EA00079F8102000F076F8002000F073F80025A3
:100EB00004E0304600F0A2F8681CC5B2842DF8DBCF
:100EC000601EC4B2B02CE9DA70BD000010B500F0AD
:100ED0004BF808202349088110200881322000F0B7
:100EE000F9F810200921C9068861322000F0F2F8D3
:100EF000A22000F04FF8A12000F04CF8802000F074
:100F000049F8052000F0E6F8262000F043F881209B
:100F100000F040F8082000F03DF80A2000F0DAF870
:100F20002F2000F037F80A2000F0D4F8F82000F065
:100F300031F8002000F02EF8052000F0CBF8AF20AB
:100F400000F028F8052000F0C5F8A42000F022F8F1
:100F5000C82000F01FF8A02000F01CF80020FFF7C8
:100F600099FF10BD200000481CB501214804FFF77F
:100F7000C3FCF820009001216846017100218171B5
:100F8000012141710021C17169460920C006FFF7A6
:100F900007FC1CBD10B50346082017490881012035
:100FA00000F094F9202014490881012000F08EF906
:100FB000002419E08020034203D00921C90688617A
:100FC00002E080200C490881012000F07FF95806DA
:100FD000030E4020084908810921C90688610120C3
:100FE00000F074F9601CC4B2082CE3DB082009216E
:100FF000C906886110BD00002000004810B50346F6
:10100000082017490881012000F060F920200921FB
:10101000C9068861012000F059F9002419E08020F8
:10102000034203D00921C906886102E080200C49EF
:101030000881012000F04AF95806030E40200849B3
:1010400008810921C9068861012000F03FF9601C70
:10105000C4B2082CE3DB08200921C906886110BD51
:101060002000004800F00AF9FFF70DFEFFF72EFF01
:10107000FFF776FEFFF712FE00F0B2F800F038F846
:101080001FE010480078012802D100200D490870A7
:101090000D480078012804D100200B490870FFF7A3
:1010A00081FE0A480078012804D100200749087011
:1010B000FFF714FE06480078012802D100200449F9
:1010C0000870DEE70200002003000020040000207A
:1010D0000500002008E07D21890101E04A1E91B24F
:1010E0000029FBDC421E90B20028F4DC70470000AF
:1010F00000B593B001213548FFF7FEFB01214802FE
:10110000FFF71AFC01201190032110A801720121A0
:1011100041720021C17211A90920C006FFF740FBEE
:101120000520099000200890109029480790012080
:1011300080020D9080200B9020200E902548069074
:1011400080150C9000200A90012040030F9006A902
:101150002148FFF7BDF801211F48FFF7ABF8002138
:101160001C484038FFF74FF80020009000216846E7
:101170000171002003900290049005906946154883
:101180004038FFF77BF80522012112484038FFF76D
:1011900016F801210F484038FFF729F80D4840386C
:1011A000FFF739F801210B484038FFF714F800BF6A
:1011B0000A4908484038FFF74BF80028F8D005489E
:1011C0004038FFF771F813B000BD000001000200C5
:1011D000A20100204024014008000240010000015B
:1011E00000B58BB001218804FFF786FB01210220A6
:1011F000FFF792FB01200990022108A80172032148
:101200004172002181720121C17209A91748FFF7BB
:10121000C7FA012200211548FFF70AFB00216846A2
:1012200001834183124807906846018406A911484A
:10123000FFF7DCFC6021684681800121C1800E48F7
:10124000039002216846018201A90A48FFF776FC53
:1012500008210848FFF7BEFC00210648FFF760FCA4
:1012600001210448FFF74EFC0BB000BD000400480C
:101270007FBB000000040040C05D000010B57D2170
:10128000C9000F480068FEF733FF04460D4884424A
:1012900001D901200EE02002000A401E0A494861DF
:1012A0000321081FFFF7EAFA002007498861072099
:1012B00008610020002801D000BFFEE710BD00003B
:1012C00068010020FFFFFF0000E000E007E00821C8
:1012D00001E04A1E91B20029FBDC421E90B20028B8
:1012E000F5DC704704130008000000207C010000BA
:1012F000680100081C1400087C0100203404000070
:10130000780C0008711027AA01AA02AA03AA04AA4D
:1013100005AA06AA07AA08AA09AA0AAA0BAA0CAA39
:101320000DAA0EAA0FAA10AAF8040404F8260102B6
:101330000202014308FC2402030216188444241804
:101340001A031812025E08042424D8244640B088E8
:10135000FC8019255E3C242424C4185EF824242C27
:10136000C00C2E0C04E41C0423311AD824693C2E32
:1013700038444444F83A296C1120097C5556FC56EF
:1013800055547C2A01013A070631100AFF484848A3
:101390004FC80808083A0428114207180A8464FF55
:1013A0002444FE0202FF9C12013A071B14070407A3
:1013B0002E202222FE22041323224A0431393038FF
:1013C0000A080E88782FE828A96A481B0504741CAF
:1013D0000202049629D2194829E419FB3C040407A7
:1013E000061118081008FC130804FFAE29BA294397
:1013F000399111180C04064A6A5ACB4A5A6A4A06AD
:10140000301D05050507042948811B6CDC4A610075
:0C1410000900010203040607080900009F
:04000005080000C12E
:00000001FF
